{
  "contractName": "Auction",
  "abi": [
    {
      "inputs": [],
      "stateMutability": "nonpayable",
      "type": "constructor"
    },
    {
      "anonymous": false,
      "inputs": [
        {
          "indexed": true,
          "internalType": "address",
          "name": "_highestBidder",
          "type": "address"
        },
        {
          "indexed": false,
          "internalType": "uint256",
          "name": "_highestBid",
          "type": "uint256"
        }
      ],
      "name": "LogBid",
      "type": "event"
    },
    {
      "anonymous": false,
      "inputs": [
        {
          "indexed": true,
          "internalType": "address",
          "name": "_withdrawer",
          "type": "address"
        },
        {
          "indexed": false,
          "internalType": "uint256",
          "name": "amount",
          "type": "uint256"
        }
      ],
      "name": "LogWithdrawal",
      "type": "event"
    },
    {
      "inputs": [
        {
          "internalType": "address",
          "name": "",
          "type": "address"
        }
      ],
      "name": "bids",
      "outputs": [
        {
          "internalType": "uint256",
          "name": "",
          "type": "uint256"
        }
      ],
      "stateMutability": "view",
      "type": "function",
      "constant": true
    },
    {
      "inputs": [],
      "name": "endTime",
      "outputs": [
        {
          "internalType": "uint256",
          "name": "",
          "type": "uint256"
        }
      ],
      "stateMutability": "view",
      "type": "function",
      "constant": true
    },
    {
      "inputs": [],
      "name": "highestBid",
      "outputs": [
        {
          "internalType": "uint256",
          "name": "bidAmount",
          "type": "uint256"
        },
        {
          "internalType": "address",
          "name": "bidder",
          "type": "address"
        }
      ],
      "stateMutability": "view",
      "type": "function",
      "constant": true
    },
    {
      "inputs": [],
      "name": "newHouse",
      "outputs": [
        {
          "internalType": "string",
          "name": "houseType",
          "type": "string"
        },
        {
          "internalType": "string",
          "name": "houseColor",
          "type": "string"
        },
        {
          "internalType": "string",
          "name": "houseLocation",
          "type": "string"
        }
      ],
      "stateMutability": "view",
      "type": "function",
      "constant": true
    },
    {
      "inputs": [],
      "name": "startTime",
      "outputs": [
        {
          "internalType": "uint256",
          "name": "",
          "type": "uint256"
        }
      ],
      "stateMutability": "view",
      "type": "function",
      "constant": true
    },
    {
      "inputs": [],
      "name": "makeBid",
      "outputs": [
        {
          "internalType": "bool",
          "name": "",
          "type": "bool"
        }
      ],
      "stateMutability": "payable",
      "type": "function",
      "payable": true
    },
    {
      "inputs": [],
      "name": "withdraw",
      "outputs": [
        {
          "internalType": "bool",
          "name": "",
          "type": "bool"
        }
      ],
      "stateMutability": "nonpayable",
      "type": "function"
    },
    {
      "inputs": [],
      "name": "fetchHighestBid",
      "outputs": [
        {
          "components": [
            {
              "internalType": "uint256",
              "name": "bidAmount",
              "type": "uint256"
            },
            {
              "internalType": "address",
              "name": "bidder",
              "type": "address"
            }
          ],
          "internalType": "struct Auction.HighestBid",
          "name": "",
          "type": "tuple"
        }
      ],
      "stateMutability": "view",
      "type": "function",
      "constant": true
    },
    {
      "inputs": [],
      "name": "getOwner",
      "outputs": [
        {
          "internalType": "address",
          "name": "",
          "type": "address"
        }
      ],
      "stateMutability": "view",
      "type": "function",
      "constant": true
    }
  ],
  "bytecode": "0x60806040523480156200001157600080fd5b50336000806101000a81548173ffffffffffffffffffffffffffffffffffffffff021916908373ffffffffffffffffffffffffffffffffffffffff16021790555042600181905550610e104262000069919062000251565b6002819055506040518060400160405280600781526020017f234646464646460000000000000000000000000000000000000000000000000081525060046001019080519060200190620000bf92919062000168565b506040518060400160405280600e81526020017f4c61676f732c204e696765726961000000000000000000000000000000000000815250600460020190805190602001906200011092919062000168565b506040518060400160405280600681526020017f4475706c65780000000000000000000000000000000000000000000000000000815250600460000190805190602001906200016192919062000168565b5062000313565b8280546200017690620002dd565b90600052602060002090601f0160209004810192826200019a5760008555620001e6565b82601f10620001b557805160ff1916838001178555620001e6565b82800160010185558215620001e6579182015b82811115620001e5578251825591602001919060010190620001c8565b5b509050620001f59190620001f9565b5090565b5b8082111562000214576000816000905550600101620001fa565b5090565b6000819050919050565b7f4e487b7100000000000000000000000000000000000000000000000000000000600052601160045260246000fd5b60006200025e8262000218565b91506200026b8362000218565b9250827fffffffffffffffffffffffffffffffffffffffffffffffffffffffffffffffff03821115620002a357620002a262000222565b5b828201905092915050565b7f4e487b7100000000000000000000000000000000000000000000000000000000600052602260045260246000fd5b60006002820490506001821680620002f657607f821691505b602082108114156200030d576200030c620002ae565b5b50919050565b61108980620003236000396000f3fe6080604052600436106100865760003560e01c8063893d20e811610059578063893d20e814610149578063d57bde7914610174578063f30e3658146101a0578063f373c463146101be578063fa481f86146101e957610086565b80633197cbb61461008b5780633ccfd60b146100b657806362ea82db146100e157806378e979251461011e575b600080fd5b34801561009757600080fd5b506100a0610216565b6040516100ad9190610a1e565b60405180910390f35b3480156100c257600080fd5b506100cb61021c565b6040516100d89190610a54565b60405180910390f35b3480156100ed57600080fd5b5061010860048036038101906101039190610ad2565b6104d9565b6040516101159190610a1e565b60405180910390f35b34801561012a57600080fd5b506101336104f1565b6040516101409190610a1e565b60405180910390f35b34801561015557600080fd5b5061015e6104f7565b60405161016b9190610b0e565b60405180910390f35b34801561018057600080fd5b50610189610520565b604051610197929190610b29565b60405180910390f35b6101a8610552565b6040516101b59190610a54565b60405180910390f35b3480156101ca57600080fd5b506101d36107a5565b6040516101e09190610b9f565b60405180910390f35b3480156101f557600080fd5b506101fe610825565b60405161020d93929190610c53565b60405180910390f35b60025481565b6000600254421015610263576040517f08c379a000000000000000000000000000000000000000000000000000000000815260040161025a90610ceb565b60405180910390fd5b60008054906101000a900473ffffffffffffffffffffffffffffffffffffffff1673ffffffffffffffffffffffffffffffffffffffff163373ffffffffffffffffffffffffffffffffffffffff16146102f1576040517f08c379a00000000000000000000000000000000000000000000000000000000081526004016102e890610d57565b60405180910390fd5b60006007600001549050600060036000600760010160009054906101000a900473ffffffffffffffffffffffffffffffffffffffff1673ffffffffffffffffffffffffffffffffffffffff1673ffffffffffffffffffffffffffffffffffffffff168152602001908152602001600020819055506000600760010160006101000a81548173ffffffffffffffffffffffffffffffffffffffff021916908373ffffffffffffffffffffffffffffffffffffffff160217905550600060076000018190555060008060009054906101000a900473ffffffffffffffffffffffffffffffffffffffff1673ffffffffffffffffffffffffffffffffffffffff16826040516103fc90610da8565b60006040518083038185875af1925050503d8060008114610439576040519150601f19603f3d011682016040523d82523d6000602084013e61043e565b606091505b5050905080610482576040517f08c379a000000000000000000000000000000000000000000000000000000000815260040161047990610e09565b60405180910390fd5b3373ffffffffffffffffffffffffffffffffffffffff167fb4214c8c54fc7442f36d3682f59aebaf09358a4431835b30efb29d52cf9e1e91836040516104c89190610a1e565b60405180910390a260019250505090565b60036020528060005260406000206000915090505481565b60015481565b60008060009054906101000a900473ffffffffffffffffffffffffffffffffffffffff16905090565b60078060000154908060010160009054906101000a900473ffffffffffffffffffffffffffffffffffffffff16905082565b60006002544210610598576040517f08c379a000000000000000000000000000000000000000000000000000000000815260040161058f90610e75565b60405180910390fd5b60008054906101000a900473ffffffffffffffffffffffffffffffffffffffff1673ffffffffffffffffffffffffffffffffffffffff163373ffffffffffffffffffffffffffffffffffffffff161415610627576040517f08c379a000000000000000000000000000000000000000000000000000000000815260040161061e90610ee1565b60405180910390fd5b600034600360003373ffffffffffffffffffffffffffffffffffffffff1673ffffffffffffffffffffffffffffffffffffffff168152602001908152602001600020546106749190610f30565b905060076000015481116106bd576040517f08c379a00000000000000000000000000000000000000000000000000000000081526004016106b490610fd2565b60405180910390fd5b33600760010160006101000a81548173ffffffffffffffffffffffffffffffffffffffff021916908373ffffffffffffffffffffffffffffffffffffffff1602179055508060076000018190555080600360003373ffffffffffffffffffffffffffffffffffffffff1673ffffffffffffffffffffffffffffffffffffffff168152602001908152602001600020819055503373ffffffffffffffffffffffffffffffffffffffff167f5331b3a4532c2507900f549683f076c051f92222c177b52f82f140d8667d3ebf826040516107959190610a1e565b60405180910390a2600191505090565b6107ad6109d5565b60006007604051806040016040529081600082015481526020016001820160009054906101000a900473ffffffffffffffffffffffffffffffffffffffff1673ffffffffffffffffffffffffffffffffffffffff1673ffffffffffffffffffffffffffffffffffffffff168152505090508091505090565b600480600001805461083690611021565b80601f016020809104026020016040519081016040528092919081815260200182805461086290611021565b80156108af5780601f10610884576101008083540402835291602001916108af565b820191906000526020600020905b81548152906001019060200180831161089257829003601f168201915b5050505050908060010180546108c490611021565b80601f01602080910402602001604051908101604052809291908181526020018280546108f090611021565b801561093d5780601f106109125761010080835404028352916020019161093d565b820191906000526020600020905b81548152906001019060200180831161092057829003601f168201915b50505050509080600201805461095290611021565b80601f016020809104026020016040519081016040528092919081815260200182805461097e90611021565b80156109cb5780601f106109a0576101008083540402835291602001916109cb565b820191906000526020600020905b8154815290600101906020018083116109ae57829003601f168201915b5050505050905083565b604051806040016040528060008152602001600073ffffffffffffffffffffffffffffffffffffffff1681525090565b6000819050919050565b610a1881610a05565b82525050565b6000602082019050610a336000830184610a0f565b92915050565b60008115159050919050565b610a4e81610a39565b82525050565b6000602082019050610a696000830184610a45565b92915050565b600080fd5b600073ffffffffffffffffffffffffffffffffffffffff82169050919050565b6000610a9f82610a74565b9050919050565b610aaf81610a94565b8114610aba57600080fd5b50565b600081359050610acc81610aa6565b92915050565b600060208284031215610ae857610ae7610a6f565b5b6000610af684828501610abd565b91505092915050565b610b0881610a94565b82525050565b6000602082019050610b236000830184610aff565b92915050565b6000604082019050610b3e6000830185610a0f565b610b4b6020830184610aff565b9392505050565b610b5b81610a05565b82525050565b610b6a81610a94565b82525050565b604082016000820151610b866000850182610b52565b506020820151610b996020850182610b61565b50505050565b6000604082019050610bb46000830184610b70565b92915050565b600081519050919050565b600082825260208201905092915050565b60005b83811015610bf4578082015181840152602081019050610bd9565b83811115610c03576000848401525b50505050565b6000601f19601f8301169050919050565b6000610c2582610bba565b610c2f8185610bc5565b9350610c3f818560208601610bd6565b610c4881610c09565b840191505092915050565b60006060820190508181036000830152610c6d8186610c1a565b90508181036020830152610c818185610c1a565b90508181036040830152610c958184610c1a565b9050949350505050565b7f546869732061756374696f6e206973207374696c6c206f70656e000000000000600082015250565b6000610cd5601a83610bc5565b9150610ce082610c9f565b602082019050919050565b60006020820190508181036000830152610d0481610cc8565b9050919050565b7f4f6e6c79206f776e65722063616e20706572666f726d207461736b2e00000000600082015250565b6000610d41601c83610bc5565b9150610d4c82610d0b565b602082019050919050565b60006020820190508181036000830152610d7081610d34565b9050919050565b600081905092915050565b50565b6000610d92600083610d77565b9150610d9d82610d82565b600082019050919050565b6000610db382610d85565b9150819050919050565b7f5769746864726177616c206661696c65642e0000000000000000000000000000600082015250565b6000610df3601283610bc5565b9150610dfe82610dbd565b602082019050919050565b60006020820190508181036000830152610e2281610de6565b9050919050565b7f546869732061756374696f6e20697320636c6f7365642e000000000000000000600082015250565b6000610e5f601783610bc5565b9150610e6a82610e29565b602082019050919050565b60006020820190508181036000830152610e8e81610e52565b9050919050565b7f4f776e6572206973206e6f7420616c6c6f77656420746f206269640000000000600082015250565b6000610ecb601b83610bc5565b9150610ed682610e95565b602082019050919050565b60006020820190508181036000830152610efa81610ebe565b9050919050565b7f4e487b7100000000000000000000000000000000000000000000000000000000600052601160045260246000fd5b6000610f3b82610a05565b9150610f4683610a05565b9250827fffffffffffffffffffffffffffffffffffffffffffffffffffffffffffffffff03821115610f7b57610f7a610f01565b5b828201905092915050565b7f426964206572726f723a204d616b65206120686967686572204269642e000000600082015250565b6000610fbc601d83610bc5565b9150610fc782610f86565b602082019050919050565b60006020820190508181036000830152610feb81610faf565b9050919050565b7f4e487b7100000000000000000000000000000000000000000000000000000000600052602260045260246000fd5b6000600282049050600182168061103957607f821691505b6020821081141561104d5761104c610ff2565b5b5091905056fea26469706673582212202bf15f66d81299abf5ebe0954d3453c41f3446687f5e29f31b4975c80b07a5db64736f6c634300080a0033",
  "immutableReferences": {},
  "source": "pragma solidity ^0.8.10;\r\n\r\ncontract Auction {\r\n    // props\r\n    address private owner;\r\n    uint256 public startTime;\r\n    uint256 public endTime;\r\n    mapping(address => uint256) public bids;\r\n\r\n    struct House {\r\n        string houseType;\r\n        string houseColor;\r\n        string houseLocation;\r\n    }\r\n\r\n    struct HighestBid {\r\n        uint256 bidAmount;\r\n        address bidder;\r\n    }\r\n\r\n    House public newHouse;\r\n    HighestBid public highestBid;\r\n\r\n    modifier isOngoing() {\r\n        require(block.timestamp < endTime, 'This auction is closed.');\r\n        _;\r\n    }\r\n    modifier notOngoing() {\r\n        require(block.timestamp >= endTime, 'This auction is still open');\r\n        _;\r\n    }\r\n    modifier isOwner() {\r\n        require(msg.sender == owner, 'Only owner can perform task.');\r\n        _;\r\n    }\r\n    modifier notOwner() {\r\n        require(msg.sender != owner, 'Owner is not allowed to bid');\r\n        _;\r\n    }\r\n\r\n    // events\r\n    event LogBid(address indexed _highestBidder, uint256 _highestBid);\r\n    event LogWithdrawal(address indexed _withdrawer, uint256 amount);\r\n\r\n    constructor() {\r\n        owner = msg.sender;\r\n        startTime = block.timestamp;\r\n        endTime = block.timestamp + 1 hours;\r\n        newHouse.houseColor = '#FFFFFF';\r\n        newHouse.houseLocation = 'Lagos, Nigeria';\r\n        newHouse.houseType = 'Duplex';\r\n    }\r\n\r\n    function makeBid() public payable isOngoing() notOwner() returns (bool) {\r\n        uint256 bidAmount = bids[msg.sender] + msg.value;\r\n        require(bidAmount > highestBid.bidAmount, 'Bid error: Make a higher Bid.');\r\n\r\n        highestBid.bidder = msg.sender;\r\n        highestBid.bidAmount = bidAmount;\r\n        bids[msg.sender] = bidAmount;\r\n        emit LogBid(msg.sender, bidAmount);\r\n        return true;\r\n    }\r\n\r\n    function withdraw() public notOngoing() isOwner() returns (bool) {\r\n        uint256 amount = highestBid.bidAmount;\r\n        bids[highestBid.bidder] = 0;\r\n        highestBid.bidder = address(0);\r\n        highestBid.bidAmount = 0;\r\n\r\n        (bool success, ) = payable(owner).call{ value: amount }(\"\");\r\n        require(success, 'Withdrawal failed.');\r\n        emit LogWithdrawal(msg.sender, amount);\r\n        return true;\r\n    }\r\n\r\n    function fetchHighestBid() public view returns (HighestBid memory) {\r\n        HighestBid memory _highestBid = highestBid;\r\n        return _highestBid;\r\n    }\r\n\r\n    function getOwner() public view returns (address) {\r\n        return owner;\r\n    }\r\n}",
  "sourcePath": "C:\\Users\\Cassady\\Documents\\GitHub\\tiny-dapp\\src\\contracts\\Auction.sol",
  "compiler": {
    "name": "solc",
    "version": "0.8.10+commit.fc410830.Emscripten.clang"
  },
  "schemaVersion": "3.4.4",
  "updatedAt": "2021-12-31T17:40:57.571Z",
  "networkType": "ethereum",
  "devdoc": {
    "kind": "dev",
    "methods": {},
    "version": 1
  },
  "userdoc": {
    "kind": "user",
    "methods": {},
    "version": 1
  }
}