{
  "contractName": "Auction",
  "abi": [
    {
      "inputs": [],
      "stateMutability": "nonpayable",
      "type": "constructor"
    },
    {
      "anonymous": false,
      "inputs": [
        {
          "indexed": true,
          "internalType": "address",
          "name": "_highestBidder",
          "type": "address"
        },
        {
          "indexed": false,
          "internalType": "uint256",
          "name": "_highestBid",
          "type": "uint256"
        }
      ],
      "name": "LogBid",
      "type": "event"
    },
    {
      "anonymous": false,
      "inputs": [
        {
          "indexed": true,
          "internalType": "address",
          "name": "_withdrawer",
          "type": "address"
        },
        {
          "indexed": false,
          "internalType": "uint256",
          "name": "amount",
          "type": "uint256"
        }
      ],
      "name": "LogWithdrawal",
      "type": "event"
    },
    {
      "inputs": [
        {
          "internalType": "uint256",
          "name": "",
          "type": "uint256"
        }
      ],
      "name": "addressBids",
      "outputs": [
        {
          "internalType": "address",
          "name": "",
          "type": "address"
        }
      ],
      "stateMutability": "view",
      "type": "function",
      "constant": true
    },
    {
      "inputs": [
        {
          "internalType": "address",
          "name": "",
          "type": "address"
        }
      ],
      "name": "bids",
      "outputs": [
        {
          "internalType": "uint256",
          "name": "",
          "type": "uint256"
        }
      ],
      "stateMutability": "view",
      "type": "function",
      "constant": true
    },
    {
      "inputs": [],
      "name": "currentCar",
      "outputs": [
        {
          "internalType": "string",
          "name": "make",
          "type": "string"
        },
        {
          "internalType": "string",
          "name": "model",
          "type": "string"
        },
        {
          "internalType": "string",
          "name": "year",
          "type": "string"
        },
        {
          "internalType": "string",
          "name": "colour",
          "type": "string"
        }
      ],
      "stateMutability": "view",
      "type": "function",
      "constant": true
    },
    {
      "inputs": [],
      "name": "endTime",
      "outputs": [
        {
          "internalType": "uint256",
          "name": "",
          "type": "uint256"
        }
      ],
      "stateMutability": "view",
      "type": "function",
      "constant": true
    },
    {
      "inputs": [],
      "name": "highestBid",
      "outputs": [
        {
          "internalType": "uint256",
          "name": "bidAmount",
          "type": "uint256"
        },
        {
          "internalType": "address",
          "name": "bidder",
          "type": "address"
        }
      ],
      "stateMutability": "view",
      "type": "function",
      "constant": true
    },
    {
      "inputs": [],
      "name": "startTime",
      "outputs": [
        {
          "internalType": "uint256",
          "name": "",
          "type": "uint256"
        }
      ],
      "stateMutability": "view",
      "type": "function",
      "constant": true
    },
    {
      "inputs": [],
      "name": "makeBid",
      "outputs": [
        {
          "internalType": "bool",
          "name": "",
          "type": "bool"
        }
      ],
      "stateMutability": "payable",
      "type": "function",
      "payable": true
    },
    {
      "inputs": [],
      "name": "withdraw",
      "outputs": [
        {
          "internalType": "bool",
          "name": "",
          "type": "bool"
        }
      ],
      "stateMutability": "nonpayable",
      "type": "function"
    },
    {
      "inputs": [],
      "name": "fetchEndTime",
      "outputs": [
        {
          "internalType": "uint256",
          "name": "",
          "type": "uint256"
        }
      ],
      "stateMutability": "view",
      "type": "function",
      "constant": true
    },
    {
      "inputs": [],
      "name": "fetchTimeDifference",
      "outputs": [
        {
          "internalType": "uint256",
          "name": "",
          "type": "uint256"
        }
      ],
      "stateMutability": "view",
      "type": "function",
      "constant": true
    },
    {
      "inputs": [],
      "name": "fetchHighestBid",
      "outputs": [
        {
          "components": [
            {
              "internalType": "uint256",
              "name": "bidAmount",
              "type": "uint256"
            },
            {
              "internalType": "address",
              "name": "bidder",
              "type": "address"
            }
          ],
          "internalType": "struct Auction.HighestBid",
          "name": "",
          "type": "tuple"
        }
      ],
      "stateMutability": "view",
      "type": "function",
      "constant": true
    },
    {
      "inputs": [],
      "name": "fetchCurrentCarDetails",
      "outputs": [
        {
          "components": [
            {
              "internalType": "string",
              "name": "make",
              "type": "string"
            },
            {
              "internalType": "string",
              "name": "model",
              "type": "string"
            },
            {
              "internalType": "string",
              "name": "year",
              "type": "string"
            },
            {
              "internalType": "string",
              "name": "colour",
              "type": "string"
            }
          ],
          "internalType": "struct Auction.Car",
          "name": "",
          "type": "tuple"
        }
      ],
      "stateMutability": "view",
      "type": "function",
      "constant": true
    },
    {
      "inputs": [],
      "name": "getOwner",
      "outputs": [
        {
          "internalType": "address",
          "name": "",
          "type": "address"
        }
      ],
      "stateMutability": "view",
      "type": "function",
      "constant": true
    }
  ],
  "bytecode": "0x60806040523480156200001157600080fd5b50336000806101000a81548173ffffffffffffffffffffffffffffffffffffffff021916908373ffffffffffffffffffffffffffffffffffffffff16021790555042600181905550610e1042620000699190620002a2565b6002819055506040518060400160405280600581526020017f416375726100000000000000000000000000000000000000000000000000000081525060056000019080519060200190620000bf929190620001b9565b506040518060400160405280600381526020017f43535800000000000000000000000000000000000000000000000000000000008152506005600101908051906020019062000110929190620001b9565b506040518060400160405280600481526020017f32303038000000000000000000000000000000000000000000000000000000008152506005600201908051906020019062000161929190620001b9565b506040518060400160405280600581526020017f426c61636b00000000000000000000000000000000000000000000000000000081525060056003019080519060200190620001b2929190620001b9565b5062000364565b828054620001c7906200032e565b90600052602060002090601f016020900481019282620001eb576000855562000237565b82601f106200020657805160ff191683800117855562000237565b8280016001018555821562000237579182015b828111156200023657825182559160200191906001019062000219565b5b5090506200024691906200024a565b5090565b5b80821115620002655760008160009055506001016200024b565b5090565b6000819050919050565b7f4e487b7100000000000000000000000000000000000000000000000000000000600052601160045260246000fd5b6000620002af8262000269565b9150620002bc8362000269565b9250827fffffffffffffffffffffffffffffffffffffffffffffffffffffffffffffffff03821115620002f457620002f362000273565b5b828201905092915050565b7f4e487b7100000000000000000000000000000000000000000000000000000000600052602260045260246000fd5b600060028204905060018216806200034757607f821691505b602082108114156200035e576200035d620002ff565b5b50919050565b61168d80620003746000396000f3fe6080604052600436106100c25760003560e01c806378e979251161007f578063d57bde7911610059578063d57bde7914610271578063f30e36581461029d578063f373c463146102bb578063f8db8414146102e6576100c2565b806378e97925146101f0578063893d20e81461021b578063ab4fc4b614610246576100c2565b806320627c6a146100c757806329af11bf146100f25780632ed416bd146101205780633197cbb61461015d5780633ccfd60b1461018857806362ea82db146101b3575b600080fd5b3480156100d357600080fd5b506100dc610311565b6040516100e99190610f94565b60405180910390f35b3480156100fe57600080fd5b50610107610579565b6040516101179493929190611000565b60405180910390f35b34801561012c57600080fd5b506101476004803603810190610142919061109c565b6107b7565b604051610154919061110a565b60405180910390f35b34801561016957600080fd5b506101726107f6565b60405161017f9190611134565b60405180910390f35b34801561019457600080fd5b5061019d6107fc565b6040516101aa919061116a565b60405180910390f35b3480156101bf57600080fd5b506101da60048036038101906101d591906111b1565b610ab9565b6040516101e79190611134565b60405180910390f35b3480156101fc57600080fd5b50610205610ad1565b6040516102129190611134565b60405180910390f35b34801561022757600080fd5b50610230610ad7565b60405161023d919061110a565b60405180910390f35b34801561025257600080fd5b5061025b610b00565b6040516102689190611134565b60405180910390f35b34801561027d57600080fd5b50610286610b0a565b6040516102949291906111de565b60405180910390f35b6102a5610b3c565b6040516102b2919061116a565b60405180910390f35b3480156102c757600080fd5b506102d0610d8f565b6040516102dd9190611254565b60405180910390f35b3480156102f257600080fd5b506102fb610e0f565b6040516103089190611134565b60405180910390f35b610319610e2b565b600060056040518060800160405290816000820180546103389061129e565b80601f01602080910402602001604051908101604052809291908181526020018280546103649061129e565b80156103b15780601f10610386576101008083540402835291602001916103b1565b820191906000526020600020905b81548152906001019060200180831161039457829003601f168201915b505050505081526020016001820180546103ca9061129e565b80601f01602080910402602001604051908101604052809291908181526020018280546103f69061129e565b80156104435780601f1061041857610100808354040283529160200191610443565b820191906000526020600020905b81548152906001019060200180831161042657829003601f168201915b5050505050815260200160028201805461045c9061129e565b80601f01602080910402602001604051908101604052809291908181526020018280546104889061129e565b80156104d55780601f106104aa576101008083540402835291602001916104d5565b820191906000526020600020905b8154815290600101906020018083116104b857829003601f168201915b505050505081526020016003820180546104ee9061129e565b80601f016020809104026020016040519081016040528092919081815260200182805461051a9061129e565b80156105675780601f1061053c57610100808354040283529160200191610567565b820191906000526020600020905b81548152906001019060200180831161054a57829003601f168201915b50505050508152505090508091505090565b600580600001805461058a9061129e565b80601f01602080910402602001604051908101604052809291908181526020018280546105b69061129e565b80156106035780601f106105d857610100808354040283529160200191610603565b820191906000526020600020905b8154815290600101906020018083116105e657829003601f168201915b5050505050908060010180546106189061129e565b80601f01602080910402602001604051908101604052809291908181526020018280546106449061129e565b80156106915780601f1061066657610100808354040283529160200191610691565b820191906000526020600020905b81548152906001019060200180831161067457829003601f168201915b5050505050908060020180546106a69061129e565b80601f01602080910402602001604051908101604052809291908181526020018280546106d29061129e565b801561071f5780601f106106f45761010080835404028352916020019161071f565b820191906000526020600020905b81548152906001019060200180831161070257829003601f168201915b5050505050908060030180546107349061129e565b80601f01602080910402602001604051908101604052809291908181526020018280546107609061129e565b80156107ad5780601f10610782576101008083540402835291602001916107ad565b820191906000526020600020905b81548152906001019060200180831161079057829003601f168201915b5050505050905084565b600481815481106107c757600080fd5b906000526020600020016000915054906101000a900473ffffffffffffffffffffffffffffffffffffffff1681565b60025481565b6000600254421015610843576040517f08c379a000000000000000000000000000000000000000000000000000000000815260040161083a9061131c565b60405180910390fd5b60008054906101000a900473ffffffffffffffffffffffffffffffffffffffff1673ffffffffffffffffffffffffffffffffffffffff163373ffffffffffffffffffffffffffffffffffffffff16146108d1576040517f08c379a00000000000000000000000000000000000000000000000000000000081526004016108c890611388565b60405180910390fd5b60006009600001549050600060036000600960010160009054906101000a900473ffffffffffffffffffffffffffffffffffffffff1673ffffffffffffffffffffffffffffffffffffffff1673ffffffffffffffffffffffffffffffffffffffff168152602001908152602001600020819055506000600960010160006101000a81548173ffffffffffffffffffffffffffffffffffffffff021916908373ffffffffffffffffffffffffffffffffffffffff160217905550600060096000018190555060008060009054906101000a900473ffffffffffffffffffffffffffffffffffffffff1673ffffffffffffffffffffffffffffffffffffffff16826040516109dc906113d9565b60006040518083038185875af1925050503d8060008114610a19576040519150601f19603f3d011682016040523d82523d6000602084013e610a1e565b606091505b5050905080610a62576040517f08c379a0000000000000000000000000000000000000000000000000000000008152600401610a599061143a565b60405180910390fd5b3373ffffffffffffffffffffffffffffffffffffffff167fb4214c8c54fc7442f36d3682f59aebaf09358a4431835b30efb29d52cf9e1e9183604051610aa89190611134565b60405180910390a260019250505090565b60036020528060005260406000206000915090505481565b60015481565b60008060009054906101000a900473ffffffffffffffffffffffffffffffffffffffff16905090565b6000600254905090565b60098060000154908060010160009054906101000a900473ffffffffffffffffffffffffffffffffffffffff16905082565b60006002544210610b82576040517f08c379a0000000000000000000000000000000000000000000000000000000008152600401610b79906114a6565b60405180910390fd5b60008054906101000a900473ffffffffffffffffffffffffffffffffffffffff1673ffffffffffffffffffffffffffffffffffffffff163373ffffffffffffffffffffffffffffffffffffffff161415610c11576040517f08c379a0000000000000000000000000000000000000000000000000000000008152600401610c0890611512565b60405180910390fd5b600034600360003373ffffffffffffffffffffffffffffffffffffffff1673ffffffffffffffffffffffffffffffffffffffff16815260200190815260200160002054610c5e9190611561565b90506009600001548111610ca7576040517f08c379a0000000000000000000000000000000000000000000000000000000008152600401610c9e90611603565b60405180910390fd5b33600960010160006101000a81548173ffffffffffffffffffffffffffffffffffffffff021916908373ffffffffffffffffffffffffffffffffffffffff1602179055508060096000018190555080600360003373ffffffffffffffffffffffffffffffffffffffff1673ffffffffffffffffffffffffffffffffffffffff168152602001908152602001600020819055503373ffffffffffffffffffffffffffffffffffffffff167f5331b3a4532c2507900f549683f076c051f92222c177b52f82f140d8667d3ebf82604051610d7f9190611134565b60405180910390a2600191505090565b610d97610e53565b60006009604051806040016040529081600082015481526020016001820160009054906101000a900473ffffffffffffffffffffffffffffffffffffffff1673ffffffffffffffffffffffffffffffffffffffff1673ffffffffffffffffffffffffffffffffffffffff168152505090508091505090565b600080600154600254610e229190611623565b90508091505090565b6040518060800160405280606081526020016060815260200160608152602001606081525090565b604051806040016040528060008152602001600073ffffffffffffffffffffffffffffffffffffffff1681525090565b600081519050919050565b600082825260208201905092915050565b60005b83811015610ebd578082015181840152602081019050610ea2565b83811115610ecc576000848401525b50505050565b6000601f19601f8301169050919050565b6000610eee82610e83565b610ef88185610e8e565b9350610f08818560208601610e9f565b610f1181610ed2565b840191505092915050565b60006080830160008301518482036000860152610f398282610ee3565b91505060208301518482036020860152610f538282610ee3565b91505060408301518482036040860152610f6d8282610ee3565b91505060608301518482036060860152610f878282610ee3565b9150508091505092915050565b60006020820190508181036000830152610fae8184610f1c565b905092915050565b600082825260208201905092915050565b6000610fd282610e83565b610fdc8185610fb6565b9350610fec818560208601610e9f565b610ff581610ed2565b840191505092915050565b6000608082019050818103600083015261101a8187610fc7565b9050818103602083015261102e8186610fc7565b905081810360408301526110428185610fc7565b905081810360608301526110568184610fc7565b905095945050505050565b600080fd5b6000819050919050565b61107981611066565b811461108457600080fd5b50565b60008135905061109681611070565b92915050565b6000602082840312156110b2576110b1611061565b5b60006110c084828501611087565b91505092915050565b600073ffffffffffffffffffffffffffffffffffffffff82169050919050565b60006110f4826110c9565b9050919050565b611104816110e9565b82525050565b600060208201905061111f60008301846110fb565b92915050565b61112e81611066565b82525050565b60006020820190506111496000830184611125565b92915050565b60008115159050919050565b6111648161114f565b82525050565b600060208201905061117f600083018461115b565b92915050565b61118e816110e9565b811461119957600080fd5b50565b6000813590506111ab81611185565b92915050565b6000602082840312156111c7576111c6611061565b5b60006111d58482850161119c565b91505092915050565b60006040820190506111f36000830185611125565b61120060208301846110fb565b9392505050565b61121081611066565b82525050565b61121f816110e9565b82525050565b60408201600082015161123b6000850182611207565b50602082015161124e6020850182611216565b50505050565b60006040820190506112696000830184611225565b92915050565b7f4e487b7100000000000000000000000000000000000000000000000000000000600052602260045260246000fd5b600060028204905060018216806112b657607f821691505b602082108114156112ca576112c961126f565b5b50919050565b7f546869732061756374696f6e206973207374696c6c206f70656e000000000000600082015250565b6000611306601a83610fb6565b9150611311826112d0565b602082019050919050565b60006020820190508181036000830152611335816112f9565b9050919050565b7f4f6e6c79206f776e65722063616e20706572666f726d207461736b2e00000000600082015250565b6000611372601c83610fb6565b915061137d8261133c565b602082019050919050565b600060208201905081810360008301526113a181611365565b9050919050565b600081905092915050565b50565b60006113c36000836113a8565b91506113ce826113b3565b600082019050919050565b60006113e4826113b6565b9150819050919050565b7f5769746864726177616c206661696c65642e0000000000000000000000000000600082015250565b6000611424601283610fb6565b915061142f826113ee565b602082019050919050565b6000602082019050818103600083015261145381611417565b9050919050565b7f546869732061756374696f6e20697320636c6f7365642e000000000000000000600082015250565b6000611490601783610fb6565b915061149b8261145a565b602082019050919050565b600060208201905081810360008301526114bf81611483565b9050919050565b7f4f776e6572206973206e6f7420616c6c6f77656420746f206269640000000000600082015250565b60006114fc601b83610fb6565b9150611507826114c6565b602082019050919050565b6000602082019050818103600083015261152b816114ef565b9050919050565b7f4e487b7100000000000000000000000000000000000000000000000000000000600052601160045260246000fd5b600061156c82611066565b915061157783611066565b9250827fffffffffffffffffffffffffffffffffffffffffffffffffffffffffffffffff038211156115ac576115ab611532565b5b828201905092915050565b7f426964206572726f723a204d616b65206120686967686572204269642e000000600082015250565b60006115ed601d83610fb6565b91506115f8826115b7565b602082019050919050565b6000602082019050818103600083015261161c816115e0565b9050919050565b600061162e82611066565b915061163983611066565b92508282101561164c5761164b611532565b5b82820390509291505056fea2646970667358221220b0bac487f5d5d71c32788342b6af1038a9bb9ce19c2d4836d57508a3abedd7b664736f6c634300080a0033",
  "immutableReferences": {},
  "source": "pragma solidity ^0.8.10;\r\n\r\ncontract Auction {\r\n    // props\r\n    address private owner;\r\n    uint256 public startTime;\r\n    uint256 public endTime;\r\n    mapping(address => uint256) public bids;\r\n    address[] public addressBids;\r\n\r\n    struct Car {\r\n        string make;\r\n        string model;\r\n        string year;\r\n        string colour;\r\n    }\r\n\r\n    struct HighestBid {\r\n        uint256 bidAmount;\r\n        address bidder;\r\n    }\r\n\r\n    Car public currentCar;\r\n    HighestBid public highestBid;\r\n\r\n    modifier isOngoing() {\r\n        require(block.timestamp < endTime, 'This auction is closed.');\r\n        _;\r\n    }\r\n    modifier notOngoing() {\r\n        require(block.timestamp >= endTime, 'This auction is still open');\r\n        _;\r\n    }\r\n    modifier isOwner() {\r\n        require(msg.sender == owner, 'Only owner can perform task.');\r\n        _;\r\n    }\r\n    modifier notOwner() {\r\n        require(msg.sender != owner, 'Owner is not allowed to bid');\r\n        _;\r\n    }\r\n\r\n    // events\r\n    event LogBid(address indexed _highestBidder, uint256 _highestBid);\r\n    event LogWithdrawal(address indexed _withdrawer, uint256 amount);\r\n\r\n    constructor() {\r\n        owner = msg.sender;\r\n        startTime = block.timestamp;\r\n        endTime = block.timestamp + 1 hours;\r\n\r\n        currentCar.make = 'Acura';\r\n        currentCar.model = 'CSX';\r\n        currentCar.year = '2008';\r\n        currentCar.colour = 'Black';\r\n    }\r\n\r\n    function makeBid() public payable isOngoing() notOwner() returns (bool) {\r\n        uint256 bidAmount = bids[msg.sender] + msg.value;\r\n        require(bidAmount > highestBid.bidAmount, 'Bid error: Make a higher Bid.');\r\n\r\n        highestBid.bidder = msg.sender;\r\n        highestBid.bidAmount = bidAmount;\r\n        bids[msg.sender] = bidAmount;\r\n        emit LogBid(msg.sender, bidAmount);\r\n        return true;\r\n    }\r\n\r\n    function withdraw() public notOngoing() isOwner() returns (bool) {\r\n        uint256 amount = highestBid.bidAmount;\r\n        bids[highestBid.bidder] = 0;\r\n        highestBid.bidder = address(0);\r\n        highestBid.bidAmount = 0;\r\n\r\n        (bool success, ) = payable(owner).call{ value: amount }(\"\");\r\n        require(success, 'Withdrawal failed.');\r\n        emit LogWithdrawal(msg.sender, amount);\r\n        return true;\r\n    }\r\n\r\n    function fetchEndTime() public view returns(uint256) {\r\n        return endTime;\r\n    }\r\n\r\n\r\n    function fetchTimeDifference() public view returns(uint) {\r\n        uint diff = (endTime - startTime);\r\n        return diff;\r\n    }\r\n\r\n    function fetchHighestBid() public view returns (HighestBid memory) {\r\n        HighestBid memory _highestBid = highestBid;\r\n        return _highestBid;\r\n    }\r\n\r\n    function fetchCurrentCarDetails() public view returns (Car memory) {\r\n        Car memory _car = currentCar;\r\n        return _car;\r\n    }\r\n\r\n    function getOwner() public view returns (address) {\r\n        return owner;\r\n    }\r\n\r\n    function getBidCount() private view returns (uint) {\r\n        return addressBids.length;\r\n    }\r\n}",
  "sourcePath": "C:\\Users\\Cassady\\Documents\\GitHub\\tiny-dapp\\src\\contracts\\Auction.sol",
  "compiler": {
    "name": "solc",
    "version": "0.8.10+commit.fc410830.Emscripten.clang"
  },
  "schemaVersion": "3.4.4",
  "updatedAt": "2022-01-02T19:38:52.652Z",
  "networkType": "ethereum",
  "devdoc": {
    "kind": "dev",
    "methods": {},
    "version": 1
  },
  "userdoc": {
    "kind": "user",
    "methods": {},
    "version": 1
  }
}