{
  "contractName": "Auction",
  "abi": [
    {
      "inputs": [],
      "stateMutability": "nonpayable",
      "type": "constructor"
    },
    {
      "anonymous": false,
      "inputs": [
        {
          "indexed": true,
          "internalType": "address",
          "name": "_highestBidder",
          "type": "address"
        },
        {
          "indexed": false,
          "internalType": "uint256",
          "name": "_highestBid",
          "type": "uint256"
        }
      ],
      "name": "LogBid",
      "type": "event"
    },
    {
      "anonymous": false,
      "inputs": [
        {
          "indexed": true,
          "internalType": "address",
          "name": "_withdrawer",
          "type": "address"
        },
        {
          "indexed": false,
          "internalType": "uint256",
          "name": "amount",
          "type": "uint256"
        }
      ],
      "name": "LogWithdrawal",
      "type": "event"
    },
    {
      "inputs": [
        {
          "internalType": "address",
          "name": "",
          "type": "address"
        }
      ],
      "name": "bids",
      "outputs": [
        {
          "internalType": "uint256",
          "name": "",
          "type": "uint256"
        }
      ],
      "stateMutability": "view",
      "type": "function",
      "constant": true
    },
    {
      "inputs": [],
      "name": "currentCar",
      "outputs": [
        {
          "internalType": "string",
          "name": "make",
          "type": "string"
        },
        {
          "internalType": "string",
          "name": "model",
          "type": "string"
        },
        {
          "internalType": "string",
          "name": "year",
          "type": "string"
        },
        {
          "internalType": "string",
          "name": "colour",
          "type": "string"
        }
      ],
      "stateMutability": "view",
      "type": "function",
      "constant": true
    },
    {
      "inputs": [],
      "name": "endTime",
      "outputs": [
        {
          "internalType": "uint256",
          "name": "",
          "type": "uint256"
        }
      ],
      "stateMutability": "view",
      "type": "function",
      "constant": true
    },
    {
      "inputs": [],
      "name": "highestBid",
      "outputs": [
        {
          "internalType": "uint256",
          "name": "bidAmount",
          "type": "uint256"
        },
        {
          "internalType": "address",
          "name": "bidder",
          "type": "address"
        }
      ],
      "stateMutability": "view",
      "type": "function",
      "constant": true
    },
    {
      "inputs": [],
      "name": "startTime",
      "outputs": [
        {
          "internalType": "uint256",
          "name": "",
          "type": "uint256"
        }
      ],
      "stateMutability": "view",
      "type": "function",
      "constant": true
    },
    {
      "inputs": [],
      "name": "makeBid",
      "outputs": [
        {
          "internalType": "bool",
          "name": "",
          "type": "bool"
        }
      ],
      "stateMutability": "payable",
      "type": "function",
      "payable": true
    },
    {
      "inputs": [],
      "name": "withdraw",
      "outputs": [
        {
          "internalType": "bool",
          "name": "",
          "type": "bool"
        }
      ],
      "stateMutability": "nonpayable",
      "type": "function"
    },
    {
      "inputs": [],
      "name": "fetchEndTime",
      "outputs": [
        {
          "internalType": "uint256",
          "name": "",
          "type": "uint256"
        }
      ],
      "stateMutability": "view",
      "type": "function",
      "constant": true
    },
    {
      "inputs": [],
      "name": "fetchTimeDifference",
      "outputs": [
        {
          "internalType": "uint256",
          "name": "",
          "type": "uint256"
        }
      ],
      "stateMutability": "view",
      "type": "function",
      "constant": true
    },
    {
      "inputs": [],
      "name": "fetchHighestBid",
      "outputs": [
        {
          "components": [
            {
              "internalType": "uint256",
              "name": "bidAmount",
              "type": "uint256"
            },
            {
              "internalType": "address",
              "name": "bidder",
              "type": "address"
            }
          ],
          "internalType": "struct Auction.HighestBid",
          "name": "",
          "type": "tuple"
        }
      ],
      "stateMutability": "view",
      "type": "function",
      "constant": true
    },
    {
      "inputs": [],
      "name": "fetchCurrentCarDetails",
      "outputs": [
        {
          "components": [
            {
              "internalType": "string",
              "name": "make",
              "type": "string"
            },
            {
              "internalType": "string",
              "name": "model",
              "type": "string"
            },
            {
              "internalType": "string",
              "name": "year",
              "type": "string"
            },
            {
              "internalType": "string",
              "name": "colour",
              "type": "string"
            }
          ],
          "internalType": "struct Auction.Car",
          "name": "",
          "type": "tuple"
        }
      ],
      "stateMutability": "view",
      "type": "function",
      "constant": true
    },
    {
      "inputs": [],
      "name": "getOwner",
      "outputs": [
        {
          "internalType": "address",
          "name": "",
          "type": "address"
        }
      ],
      "stateMutability": "view",
      "type": "function",
      "constant": true
    }
  ],
  "bytecode": "0x60806040523480156200001157600080fd5b50336000806101000a81548173ffffffffffffffffffffffffffffffffffffffff021916908373ffffffffffffffffffffffffffffffffffffffff16021790555042600181905550610e1042620000699190620002a2565b6002819055506040518060400160405280600581526020017f416375726100000000000000000000000000000000000000000000000000000081525060046000019080519060200190620000bf929190620001b9565b506040518060400160405280600381526020017f43535800000000000000000000000000000000000000000000000000000000008152506004600101908051906020019062000110929190620001b9565b506040518060400160405280600481526020017f32303038000000000000000000000000000000000000000000000000000000008152506004600201908051906020019062000161929190620001b9565b506040518060400160405280600581526020017f426c61636b00000000000000000000000000000000000000000000000000000081525060046003019080519060200190620001b2929190620001b9565b5062000364565b828054620001c7906200032e565b90600052602060002090601f016020900481019282620001eb576000855562000237565b82601f106200020657805160ff191683800117855562000237565b8280016001018555821562000237579182015b828111156200023657825182559160200191906001019062000219565b5b5090506200024691906200024a565b5090565b5b80821115620002655760008160009055506001016200024b565b5090565b6000819050919050565b7f4e487b7100000000000000000000000000000000000000000000000000000000600052601160045260246000fd5b6000620002af8262000269565b9150620002bc8362000269565b9250827fffffffffffffffffffffffffffffffffffffffffffffffffffffffffffffffff03821115620002f457620002f362000273565b5b828201905092915050565b7f4e487b7100000000000000000000000000000000000000000000000000000000600052602260045260246000fd5b600060028204905060018216806200034757607f821691505b602082108114156200035e576200035d620002ff565b5b50919050565b61159d80620003746000396000f3fe6080604052600436106100a75760003560e01c8063893d20e811610064578063893d20e8146101c3578063ab4fc4b6146101ee578063d57bde7914610219578063f30e365814610245578063f373c46314610263578063f8db84141461028e576100a7565b806320627c6a146100ac57806329af11bf146100d75780633197cbb6146101055780633ccfd60b1461013057806362ea82db1461015b57806378e9792514610198575b600080fd5b3480156100b857600080fd5b506100c16102b9565b6040516100ce9190610efd565b60405180910390f35b3480156100e357600080fd5b506100ec610521565b6040516100fc9493929190610f69565b60405180910390f35b34801561011157600080fd5b5061011a61075f565b6040516101279190610fe3565b60405180910390f35b34801561013c57600080fd5b50610145610765565b6040516101529190611019565b60405180910390f35b34801561016757600080fd5b50610182600480360381019061017d9190611097565b610a22565b60405161018f9190610fe3565b60405180910390f35b3480156101a457600080fd5b506101ad610a3a565b6040516101ba9190610fe3565b60405180910390f35b3480156101cf57600080fd5b506101d8610a40565b6040516101e591906110d3565b60405180910390f35b3480156101fa57600080fd5b50610203610a69565b6040516102109190610fe3565b60405180910390f35b34801561022557600080fd5b5061022e610a73565b60405161023c9291906110ee565b60405180910390f35b61024d610aa5565b60405161025a9190611019565b60405180910390f35b34801561026f57600080fd5b50610278610cf8565b6040516102859190611164565b60405180910390f35b34801561029a57600080fd5b506102a3610d78565b6040516102b09190610fe3565b60405180910390f35b6102c1610d94565b600060046040518060800160405290816000820180546102e0906111ae565b80601f016020809104026020016040519081016040528092919081815260200182805461030c906111ae565b80156103595780601f1061032e57610100808354040283529160200191610359565b820191906000526020600020905b81548152906001019060200180831161033c57829003601f168201915b50505050508152602001600182018054610372906111ae565b80601f016020809104026020016040519081016040528092919081815260200182805461039e906111ae565b80156103eb5780601f106103c0576101008083540402835291602001916103eb565b820191906000526020600020905b8154815290600101906020018083116103ce57829003601f168201915b50505050508152602001600282018054610404906111ae565b80601f0160208091040260200160405190810160405280929190818152602001828054610430906111ae565b801561047d5780601f106104525761010080835404028352916020019161047d565b820191906000526020600020905b81548152906001019060200180831161046057829003601f168201915b50505050508152602001600382018054610496906111ae565b80601f01602080910402602001604051908101604052809291908181526020018280546104c2906111ae565b801561050f5780601f106104e45761010080835404028352916020019161050f565b820191906000526020600020905b8154815290600101906020018083116104f257829003601f168201915b50505050508152505090508091505090565b6004806000018054610532906111ae565b80601f016020809104026020016040519081016040528092919081815260200182805461055e906111ae565b80156105ab5780601f10610580576101008083540402835291602001916105ab565b820191906000526020600020905b81548152906001019060200180831161058e57829003601f168201915b5050505050908060010180546105c0906111ae565b80601f01602080910402602001604051908101604052809291908181526020018280546105ec906111ae565b80156106395780601f1061060e57610100808354040283529160200191610639565b820191906000526020600020905b81548152906001019060200180831161061c57829003601f168201915b50505050509080600201805461064e906111ae565b80601f016020809104026020016040519081016040528092919081815260200182805461067a906111ae565b80156106c75780601f1061069c576101008083540402835291602001916106c7565b820191906000526020600020905b8154815290600101906020018083116106aa57829003601f168201915b5050505050908060030180546106dc906111ae565b80601f0160208091040260200160405190810160405280929190818152602001828054610708906111ae565b80156107555780601f1061072a57610100808354040283529160200191610755565b820191906000526020600020905b81548152906001019060200180831161073857829003601f168201915b5050505050905084565b60025481565b60006002544210156107ac576040517f08c379a00000000000000000000000000000000000000000000000000000000081526004016107a39061122c565b60405180910390fd5b60008054906101000a900473ffffffffffffffffffffffffffffffffffffffff1673ffffffffffffffffffffffffffffffffffffffff163373ffffffffffffffffffffffffffffffffffffffff161461083a576040517f08c379a000000000000000000000000000000000000000000000000000000000815260040161083190611298565b60405180910390fd5b60006008600001549050600060036000600860010160009054906101000a900473ffffffffffffffffffffffffffffffffffffffff1673ffffffffffffffffffffffffffffffffffffffff1673ffffffffffffffffffffffffffffffffffffffff168152602001908152602001600020819055506000600860010160006101000a81548173ffffffffffffffffffffffffffffffffffffffff021916908373ffffffffffffffffffffffffffffffffffffffff160217905550600060086000018190555060008060009054906101000a900473ffffffffffffffffffffffffffffffffffffffff1673ffffffffffffffffffffffffffffffffffffffff1682604051610945906112e9565b60006040518083038185875af1925050503d8060008114610982576040519150601f19603f3d011682016040523d82523d6000602084013e610987565b606091505b50509050806109cb576040517f08c379a00000000000000000000000000000000000000000000000000000000081526004016109c29061134a565b60405180910390fd5b3373ffffffffffffffffffffffffffffffffffffffff167fb4214c8c54fc7442f36d3682f59aebaf09358a4431835b30efb29d52cf9e1e9183604051610a119190610fe3565b60405180910390a260019250505090565b60036020528060005260406000206000915090505481565b60015481565b60008060009054906101000a900473ffffffffffffffffffffffffffffffffffffffff16905090565b6000600254905090565b60088060000154908060010160009054906101000a900473ffffffffffffffffffffffffffffffffffffffff16905082565b60006002544210610aeb576040517f08c379a0000000000000000000000000000000000000000000000000000000008152600401610ae2906113b6565b60405180910390fd5b60008054906101000a900473ffffffffffffffffffffffffffffffffffffffff1673ffffffffffffffffffffffffffffffffffffffff163373ffffffffffffffffffffffffffffffffffffffff161415610b7a576040517f08c379a0000000000000000000000000000000000000000000000000000000008152600401610b7190611422565b60405180910390fd5b600034600360003373ffffffffffffffffffffffffffffffffffffffff1673ffffffffffffffffffffffffffffffffffffffff16815260200190815260200160002054610bc79190611471565b90506008600001548111610c10576040517f08c379a0000000000000000000000000000000000000000000000000000000008152600401610c0790611513565b60405180910390fd5b33600860010160006101000a81548173ffffffffffffffffffffffffffffffffffffffff021916908373ffffffffffffffffffffffffffffffffffffffff1602179055508060086000018190555080600360003373ffffffffffffffffffffffffffffffffffffffff1673ffffffffffffffffffffffffffffffffffffffff168152602001908152602001600020819055503373ffffffffffffffffffffffffffffffffffffffff167f5331b3a4532c2507900f549683f076c051f92222c177b52f82f140d8667d3ebf82604051610ce89190610fe3565b60405180910390a2600191505090565b610d00610dbc565b60006008604051806040016040529081600082015481526020016001820160009054906101000a900473ffffffffffffffffffffffffffffffffffffffff1673ffffffffffffffffffffffffffffffffffffffff1673ffffffffffffffffffffffffffffffffffffffff168152505090508091505090565b600080600154600254610d8b9190611533565b90508091505090565b6040518060800160405280606081526020016060815260200160608152602001606081525090565b604051806040016040528060008152602001600073ffffffffffffffffffffffffffffffffffffffff1681525090565b600081519050919050565b600082825260208201905092915050565b60005b83811015610e26578082015181840152602081019050610e0b565b83811115610e35576000848401525b50505050565b6000601f19601f8301169050919050565b6000610e5782610dec565b610e618185610df7565b9350610e71818560208601610e08565b610e7a81610e3b565b840191505092915050565b60006080830160008301518482036000860152610ea28282610e4c565b91505060208301518482036020860152610ebc8282610e4c565b91505060408301518482036040860152610ed68282610e4c565b91505060608301518482036060860152610ef08282610e4c565b9150508091505092915050565b60006020820190508181036000830152610f178184610e85565b905092915050565b600082825260208201905092915050565b6000610f3b82610dec565b610f458185610f1f565b9350610f55818560208601610e08565b610f5e81610e3b565b840191505092915050565b60006080820190508181036000830152610f838187610f30565b90508181036020830152610f978186610f30565b90508181036040830152610fab8185610f30565b90508181036060830152610fbf8184610f30565b905095945050505050565b6000819050919050565b610fdd81610fca565b82525050565b6000602082019050610ff86000830184610fd4565b92915050565b60008115159050919050565b61101381610ffe565b82525050565b600060208201905061102e600083018461100a565b92915050565b600080fd5b600073ffffffffffffffffffffffffffffffffffffffff82169050919050565b600061106482611039565b9050919050565b61107481611059565b811461107f57600080fd5b50565b6000813590506110918161106b565b92915050565b6000602082840312156110ad576110ac611034565b5b60006110bb84828501611082565b91505092915050565b6110cd81611059565b82525050565b60006020820190506110e860008301846110c4565b92915050565b60006040820190506111036000830185610fd4565b61111060208301846110c4565b9392505050565b61112081610fca565b82525050565b61112f81611059565b82525050565b60408201600082015161114b6000850182611117565b50602082015161115e6020850182611126565b50505050565b60006040820190506111796000830184611135565b92915050565b7f4e487b7100000000000000000000000000000000000000000000000000000000600052602260045260246000fd5b600060028204905060018216806111c657607f821691505b602082108114156111da576111d961117f565b5b50919050565b7f546869732061756374696f6e206973207374696c6c206f70656e000000000000600082015250565b6000611216601a83610f1f565b9150611221826111e0565b602082019050919050565b6000602082019050818103600083015261124581611209565b9050919050565b7f4f6e6c79206f776e65722063616e20706572666f726d207461736b2e00000000600082015250565b6000611282601c83610f1f565b915061128d8261124c565b602082019050919050565b600060208201905081810360008301526112b181611275565b9050919050565b600081905092915050565b50565b60006112d36000836112b8565b91506112de826112c3565b600082019050919050565b60006112f4826112c6565b9150819050919050565b7f5769746864726177616c206661696c65642e0000000000000000000000000000600082015250565b6000611334601283610f1f565b915061133f826112fe565b602082019050919050565b6000602082019050818103600083015261136381611327565b9050919050565b7f546869732061756374696f6e20697320636c6f7365642e000000000000000000600082015250565b60006113a0601783610f1f565b91506113ab8261136a565b602082019050919050565b600060208201905081810360008301526113cf81611393565b9050919050565b7f4f776e6572206973206e6f7420616c6c6f77656420746f206269640000000000600082015250565b600061140c601b83610f1f565b9150611417826113d6565b602082019050919050565b6000602082019050818103600083015261143b816113ff565b9050919050565b7f4e487b7100000000000000000000000000000000000000000000000000000000600052601160045260246000fd5b600061147c82610fca565b915061148783610fca565b9250827fffffffffffffffffffffffffffffffffffffffffffffffffffffffffffffffff038211156114bc576114bb611442565b5b828201905092915050565b7f426964206572726f723a204d616b65206120686967686572204269642e000000600082015250565b60006114fd601d83610f1f565b9150611508826114c7565b602082019050919050565b6000602082019050818103600083015261152c816114f0565b9050919050565b600061153e82610fca565b915061154983610fca565b92508282101561155c5761155b611442565b5b82820390509291505056fea2646970667358221220ce8f83999613f433690b5ec369c11eb2526a2f253b4a64150a5b2a4f46a0bb5664736f6c634300080a0033",
  "immutableReferences": {},
  "source": "pragma solidity ^0.8.10;\r\n\r\ncontract Auction {\r\n    // props\r\n    address private owner;\r\n    uint256 public startTime;\r\n    uint256 public endTime;\r\n    mapping(address => uint256) public bids;\r\n\r\n    struct Car {\r\n        string make;\r\n        string model;\r\n        string year;\r\n        string colour;\r\n    }\r\n\r\n    struct HighestBid {\r\n        uint256 bidAmount;\r\n        address bidder;\r\n    }\r\n\r\n    Car public currentCar;\r\n    HighestBid public highestBid;\r\n\r\n    modifier isOngoing() {\r\n        require(block.timestamp < endTime, 'This auction is closed.');\r\n        _;\r\n    }\r\n    modifier notOngoing() {\r\n        require(block.timestamp >= endTime, 'This auction is still open');\r\n        _;\r\n    }\r\n    modifier isOwner() {\r\n        require(msg.sender == owner, 'Only owner can perform task.');\r\n        _;\r\n    }\r\n    modifier notOwner() {\r\n        require(msg.sender != owner, 'Owner is not allowed to bid');\r\n        _;\r\n    }\r\n\r\n    // events\r\n    event LogBid(address indexed _highestBidder, uint256 _highestBid);\r\n    event LogWithdrawal(address indexed _withdrawer, uint256 amount);\r\n\r\n    constructor() {\r\n        owner = msg.sender;\r\n        startTime = block.timestamp;\r\n        endTime = block.timestamp + 1 hours;\r\n\r\n        currentCar.make = 'Acura';\r\n        currentCar.model = 'CSX';\r\n        currentCar.year = '2008';\r\n        currentCar.colour = 'Black';\r\n    }\r\n\r\n    function makeBid() public payable isOngoing() notOwner() returns (bool) {\r\n        uint256 bidAmount = bids[msg.sender] + msg.value;\r\n        require(bidAmount > highestBid.bidAmount, 'Bid error: Make a higher Bid.');\r\n\r\n        highestBid.bidder = msg.sender;\r\n        highestBid.bidAmount = bidAmount;\r\n        bids[msg.sender] = bidAmount;\r\n        emit LogBid(msg.sender, bidAmount);\r\n        return true;\r\n    }\r\n\r\n    function withdraw() public notOngoing() isOwner() returns (bool) {\r\n        uint256 amount = highestBid.bidAmount;\r\n        bids[highestBid.bidder] = 0;\r\n        highestBid.bidder = address(0);\r\n        highestBid.bidAmount = 0;\r\n\r\n        (bool success, ) = payable(owner).call{ value: amount }(\"\");\r\n        require(success, 'Withdrawal failed.');\r\n        emit LogWithdrawal(msg.sender, amount);\r\n        return true;\r\n    }\r\n\r\n    function fetchEndTime() public view returns(uint256) {\r\n        return endTime;\r\n    }\r\n\r\n\r\n    function fetchTimeDifference() public view returns(uint) {\r\n        uint diff = (endTime - startTime);\r\n        return diff;\r\n    }\r\n\r\n    function fetchHighestBid() public view returns (HighestBid memory) {\r\n        HighestBid memory _highestBid = highestBid;\r\n        return _highestBid;\r\n    }\r\n\r\n    function fetchCurrentCarDetails() public view returns (Car memory) {\r\n        Car memory _car = currentCar;\r\n        return _car;\r\n    }\r\n\r\n    function getOwner() public view returns (address) {\r\n        return owner;\r\n    }\r\n}",
  "sourcePath": "C:\\Users\\Cassady\\Documents\\GitHub\\tiny-dapp\\src\\contracts\\Auction.sol",
  "compiler": {
    "name": "solc",
    "version": "0.8.10+commit.fc410830.Emscripten.clang"
  },
  "schemaVersion": "3.4.4",
  "updatedAt": "2022-01-02T02:00:44.634Z",
  "networkType": "ethereum",
  "devdoc": {
    "kind": "dev",
    "methods": {},
    "version": 1
  },
  "userdoc": {
    "kind": "user",
    "methods": {},
    "version": 1
  }
}